:100000000C9420090C9458090C9458090C94580924
:100010000C9458090C9458090C9458090C941F32EC
:100020000C9458090C9458090C945F2F0C94373099
:100030000C9458090C9458090C9458090C945809BC
:100040000C9458090C9458090C9458090C945809AC
:100050000C9458090C943B2F0C9458090C94580993
:100060000C9458090C94961C0C94731C0C9458090D
:100070000C9458090C9458090C9458090C9458097C
:100080000C9458090C9458090C9458090C9458096C
:100090000C9458090C9458090C9458090C9458095C
:1000A0000C9458090C9458090C945809002300002A
:1000B000232005010980A101850319012AB7001534
:1000C0000126B700950175108100C0050C0901A13A
:1000D00001850419012AA002150126A002950175C7
:1000E000108100C005010906A101050719E029E7F3
:1000F000150025019508750181029501750881019A
:100100000507190029FF150026FF009506750881CF
:1001100000050819012905950575019102950175DC
:10012000039101C009023B00020100A0FA0904008A
:100130000001030101000921110100012240000713
:100140000581030800010904010001030000000902
:100150002111010001223200070582032000011253
:1001600001000200000008616E63600100010200EE
:10017000010A0353004E0041005000000012036EBC
:100180000075006C006C0062006900740073000070
:10019000000403090407087F0807003E5B4F5B3E2D
:1001A000003E6B4F6B3E001C3E7C3E1C00183C7EAC
:1001B0003C18001C577D571C001C5E7F5E1C000015
:1001C000183C180000FFE7C3E7FF000018241800E0
:1001D00000FFE7DBE7FF0030483A060E00262979EA
:1001E000292600407F05050700407F05253F005A6E
:1001F0003CE73C5A007F3E1C1C0800081C1C3E7F4C
:100200000014227F2214005F5F005F5F0006097FF9
:10021000017F00006689956A0060606060600094FC
:10022000A2FFA2940008047E04080010207E201083
:100230000008082A1C0800081C2A0808001E1010C4
:100240001010000C1E0C1E0C0030383E383000061A
:100250000E3E0E060000000000000000005F0000DF
:1002600000000700070000147F147F1400242A7F79
:100270002A120023130864620036495620500000F9
:100280000807030000001C224100000041221C005E
:10029000002A1C7F1C2A0008083E08080000807005
:1002A0003000000808080808000000606000002016
:1002B00010080402003E5149453E0000427F4000C4
:1002C000007249494946002141494D330018141232
:1002D0007F10002745454539003C4A4949310041D6
:1002E0002111090700364949493600464949291E66
:1002F000000000140000000040340000000008145A
:1003000022410014141414140000412214080002A5
:1003100001590906003E415D594E007C1211127CC4
:10032000007F49494936003E41414122007F414119
:10033000413E007F49494941007F09090901003ECA
:1003400041415173007F0808087F0000417F410050
:10035000002040413F01007F08142241007F4040BF
:100360004040007F021C027F007F0408107F003E97
:100370004141413E007F09090906003E4151215E8D
:10038000007F091929460026494949320003017FA7
:100390000103003F4040403F001F2040201F003F1E
:1003A0004038403F006314081463000304780403DA
:1003B000006159494D4300007F414141000204085A
:1003C000102000004141417F00040201020400406E
:1003D000404040400000030708000020545478408B
:1003E000007F2844443800384444442800384444BA
:1003F000287F0038545454180000087E0902001861
:10040000A4A49C78007F080404780000447D400088
:10041000002040403D00007F102844000000417F44
:100420004000007C04780478007C080404780038DC
:100430004444443800FC182424180018242418FCD0
:10044000007C080404080048545454240004043F69
:100450004424003C4040207C001C2040201C003CE8
:100460004030403C004428102844004C9090907C40
:10047000004464544C4400000836410000000077FA
:100480000000000041360800000201020402003CA6
:100490002623263C00000000000000404040F0F809
:1004A000F8FF38FFF8F83FF8F8FF38FFF8F8F040A9
:1004B000404000000000000080C0C0C0800000C0BC
:1004C000C08000000080C0C000C0C0000080C0C06C
:1004D0000000000000C0C0C0C0C000C0C0000000DC
:1004E000000000000000000000000000000000000C
:1004F00000000000000000000000000000000000FC
:1005000000000000000000000000000000000000EB
:1005100000000000C0F0F8FC3E1E06010000007F55
:100520004141417F007F4141417F000080C0E07E2A
:100530005B4F5BFEC00000C000DCD7DEDEDED7DC38
:1005400000C00000000000000000000000000000EB
:100550000000000000000000000000494949FFFFC2
:10056000FFFFE0DFBFBF00BFBFDFE0FFFFFFFF49CE
:10057000494900000000001F3F6060E0BF1F007F8E
:100580007F071E381E077F7F007F7F0E1F3B716035
:1005900000000000007F7F0C0C0C007E7E007F7E40
:1005A0000303007F7E03037E7E03037F7E000F3EF6
:1005B000703C063C703E0F00327B49493F7E007F15
:1005C0007E0303001E3F69696F26000000000000E3
:1005D00000000000030F1F3F3C7870600000007FA8
:1005E0004141417F007F4141417F00307B7F783036
:1005F000202030787F3B0003000F7F0F0F0F7F0F0D
:1006000000030000000000000000000000000000E7
:100610000000000000000000000000010101070FC1
:100620000F7F0F7F0F0F7E0F0F7F0F7F0F0F0701C1
:1006300001010000000000000000000001010000B6
:1006400000000000000000000000000000000000AA
:10065000000000000000000000000000000000009A
:10066000000000000000000000000000000000008A
:10067000000000000000000000000000000000007A
:10068000000000000000000000000000000000006A
:10069000000000000000000000000000000000005A
:1006A000000000000000000000000000000000004A
:1006B000000000000000000000000000000000003A
:1006C000000000000000000000000000000000002A
:1006D00000000000002223252628292A2C2D2F3057
:1006E00032333536383A3B3D3E4042434547494A2E
:1006F0004C4E5051535557595A5C5E60626466685F
:10070000696B6D6F71737577797B7D7F8183858769
:10071000898A8C8E90929496989A9C9E9FA1A3A56C
:10072000A7A8AAACAEAFB1B3B4B6B8B9BBBCBEBF94
:10073000C1C2C3C5C6C7C9CACBCCCDCED0D1D2D217
:10074000D3D4D5D6D7D7D8D9D9DADADBDBDBDCDC22
:10075000DCDCDCDDDDDDDDDCDCDCDCDCDBDBDBDADA
:10076000DAD9D9D8D7D7D6D5D4D3D2D2D1D0CECD45
:10077000CCCBCAC9C7C6C5C3C2C1BFBEBCBBB9B852
:10078000B6B4B3B1AFAEACAAA8A7A5A3A19F9E9CD7
:100790009A98969492908E8C8A89878583817F7DA2
:1007A0007B79777573716F6D6B6968666462605E83
:1007B0005C5A5957555351504E4C4A49474543424C
:1007C000403E3D3B3A3836353332302F2D2C2A29E6
:1007D000282625232208090001020607030405FF35
:1007E000AA7F55400001010101010101010102023E
:1007F00002020202020202030303030303030304CF
:100800000404040404040505050505060606060699
:10081000070707070708080808090909090A0A0A53
:100820000B0B0B0C0C0C0D0D0D0E0E0E0F0F0F10F5
:10083000101111111212131314141515161617177F
:10084000181819191A1A1B1B1C1D1D1E1E1F2020EB
:10085000212222232424252626272829292A2B2C35
:100860002D2D2E2F30313232333435363738393A58
:100870003B3C3D3E3F404142434445464748494A50
:100880004C4D4E4F50515354555658595A5B5D5E1E
:100890005F616264656668696B6C6D6F70727375B9
:1008A00077787A7B7D7E8082838587888A8C8E8F1D
:1008B00091939596989A9C9EA0A2A3A5A7A9ABAD4B
:1008C000AFB1B3B5B7BABCBEC0C2C4C6C9CBCDCF39
:1008D000D1D4D6D8DBDDDFE2E4E7E9EBEEF0F3F5E7
:1008E000F8FAFDFF00DA028180D9F1DB20A4A62E00
:1008F000AF00A0C000A1C800AED580A81FD30040A3
:100900008D14200000047F3F1F6432146432147879
:100910003C1E1E140A050000000000000000FCFF41
:100920007F0000000000000000000000F8FF0379D5
:1009300086FFFFFFFFFF0000000000003C00FEFFFD
:10094000FFFF0000000000000000FFFFFFFFFF3F6F
:100950000000000000000000000000000000FCFF9C
:100960007F0000000000000000000000F8FF037995
:1009700086FFFFFFFFFF0000000000003CBBFFFF01
:10098000FF3F0F00000000000000FFFFFFFF00001E
:10099000F8FF3F00000080808040402020100804C5
:1009A00002040810102020404080803FC101010255
:1009B00002040404040202010101804080804030EE
:1009C00030010264180412C2CA2488F080804040BA
:1009D00040402020202010101010080808080404AF
:1009E00004040202020201010101E01806018083F1
:1009F000834040404020212120101010100808089A
:100A00000804040404020202020101010180808042
:100A100080404040402020202010101010080F0877
:100A2000080404040402040810102020404041423D
:100A30002498C088888C9C1C1E0E060000000000B4
:100A40000000000000000000008080804040202066
:100A500010080402040810102020404080803FC18C
:100A60000101020204844444428201010180408069
:100A7000804030300102040408081020408080804B
:100A8000804040404020202020101010100808080E
:100A900008040404040202020201010101E0180634
:100AA000010C0302181905FE80838340404040205A
:100AB0002121201010101008080808040404040460
:100AC000083040808001869860808080804040406F
:100AD000402020202010101010080F0808040404E3
:100AE000040202020201010101060F0F0703036164
:100AF000F0F8FC600101013C78F8F07080808040E3
:100B000040202010080402040810102020404080DB
:100B1000803FC10101020204844444428201010178
:100B200080408080403030010264180412C2CA2420
:100B300088F080804040404020202020101010107D
:100B40000808080804040404020202020101010169
:100B5000E01806010C0302181905FE80838340404B
:100B6000404020212120101010100808080804041B
:100B700004040202020201010101808080804040E1
:100B800040402020202010101010080F08080404F6
:100B90000404020202020101010100000000000041
:100BA0000000FCFF7F0000000000000000000000CB
:100BB000F8FF037986FFFFFFFFFF00000000000041
:100BC0003CBBFFFFFFFF0000000000000000FFFF34
:100BD000FFFF000000000000000000000000000017
:100BE0000080FFFF7F000000000000000000000008
:100BF000F8FF007986FFFFFFFFFF00000000000004
:100C00003C00FEFFFF3F0F00000000000000FFFF60
:100C1000FFFF1F0000C001000000000000000000F6
:100C20000000FCFF1F0000000000000000000000AA
:100C3000F8FF0348E6FFFFFFFFFF00000000000091
:100C40003C00FEFFFF3F0F00000000000000FFFF20
:100C5000FFFF1F0000C001000000000000000000B6
:100C60000000FCFF0F00000000000000000000007A
:100C7000F8FF0348F6FFFFFFFFFF00000000000041
:100C80003C00FEFFFF3F0F00000000000000FFFFE0
:100C9000FFFF1F0000C00100000000000000000076
:100CA0000000FCFF0F00000000000000000000003A
:100CB000FCFF0379F6FFFFFFFFFF000000000000CC
:100CC0003C00FEFFFF3F0F00000000000000FFFFA0
:100CD000FFFF1F0000C00100000000000000000036
:100CE0000080FFFF7F000000000000000000000007
:100CF000FEFF007986FFFFFFFFFF000000000000FD
:100D00003C00FEFFFF3F0F00000000000000FFFF5F
:100D1000FFFF1F0000C00100000080804040402015
:100D20002020202018040201020408102020404046
:100D300080803FC101010202040404040202018018
:100D400040808040303001020404080810204080B8
:100D5000808080404040402020202010101010084B
:100D6000080808040404040202020201010101E06F
:100D7000180601808383404040402021212010102C
:100D80001010080808080404040404083040808097
:100D90000186986080808080404040402020202054
:100DA00010101010080F08080404040402040810AE
:100DB00010202040404142241801010100008080A1
:100DC0004040402010080402010204081020408026
:100DD000803FC10101020204040404020201010176
:100DE0008080606001020404080810102020408008
:100DF00080808040404040202020201010101008AB
:100E0000080808040404040202020201010101C0EE
:100E1000300C038086864040404021222220111160
:100E200010100808080804040404040830408080F6
:100E300001869860808080804040404020202020B3
:100E400010101010080F080804040404020408100D
:100E50001020204040414224180101010000000000
:100E600000008080808040402010080402040810A8
:100E7000204080807E8202020404080808080404DE
:100E80000201018080606001010204040808101062
:100E90002020408080808040404040202020201042
:100EA00010101008080808040404040202020201D9
:100EB000010101C0300C0380868640404040212261
:100EC0002220111110100808080804040404040862
:100ED0003040808001869860808080804040404023
:100EE0002020202010101010080F0808040404040B
:100EF0000204081010202040404142241801010142
:100F00000000000000008080808040402010080425
:100F100002040810204080801C34C4040404080823
:100F2000080808040402010180408080403030013C
:100F300001020204040408081020408080808040E0
:100F400040404020202020101010100808080804FD
:100F50000404040202020201010101E018060180FA
:100F600083834040404020212120101010100808A9
:100F70000808040404040408304080800186986056
:100F800080808080404040402020202010101010A1
:100F9000080F08080404040402040810102020406C
:100FA000404142241801010100008080404040205F
:100FB00020202020180402010204081020204040B4
:100FC0008080060D31C10101010202020404020207
:100FD0000180408080403030010204040808102065
:100FE0004080808080404040402020202010101011
:100FF00010080808080404040402020202010101A6
:1010000001E01806018083834040404020212120D8
:1010100010101010080808080404040404083040E4
:101020008080018698608080808040404040202001
:10103000202010101010080F0808040404040204F3
:1010400008101020204040414224180101014D4168
:1010500058200057504D2000534352004E554D002C
:101060004341505300004261736500464E312000F9
:101070004C617965722000534E4150373520000095
:101080000029003A003B003C003D003E003F0000CC
:1010900000AE0035001E001F0020002100220023AA
:1010A00000000069002B0014001A00080015000061
:1010B00000170000006A003900040016000700094C
:1010C0000000000A0000006B00E10032001D001B60
:1010D0000006001900050000006C00E000E300E2DB
:1010E0000000002C0000002C0000004000410042E5
:1010F000004300440045004A004D00000024002544
:1011000000260027002D002E002A004C0000001CA5
:101110000018000C00120013002F00300046004899
:10112000000B000D000E000F0033003400280031CA
:1011300000000011001000360037003800E50052B2
:10114000004B0000002C00E6002152E4005000514A
:10115000004F004E000000000029003A003B003C18
:10116000003D003E003F000000AE0035001E001FA5
:10117000002000210022002300000069002B001441
:10118000001A00080015000000170000006A00396E
:1011900000040016000700090000000A0000006BB0
:1011A00000E10032001D001B0006001900050000D0
:1011B000006C00E000E300E20000002C0000002CC6
:1011C0000000004000410042004300440045004A46
:1011D000004D00000024002500260027002D002ED1
:1011E000002A004C0000001C0018000C0012001324
:1011F000002F003000460048000B000D000E000FCD
:1012000000330034002800310000001100100036C7
:101210000037003800E50052004B0000002C00E6CB
:10122000002152E400500051004F004E000000AB7E
:1012300000AC0079007A00237824782178227800A5
:1012400011241FBECFEFDAE0DEBFCDBF04B603FE30
:1012500018C08091390790913A07A0913B07B0914F
:101260003C078730904BA740B04B59F41092390798
:1012700010923A0710923B0710923C07E0E0F8E327
:10128000099511E0A0E0B1E0E4ECF9E602C00590B8
:101290000D92AE3EB107D9F727E0AEEEB1E001C046
:1012A0001D92A933B207E1F70E9426270C949F34C0
:1012B0000C940000813019F4809888980895809AE1
:1012C000FCCF9093B9058093B80508959093BB0522
:1012D0008093BA05089521E030E002C0220F331F49
:1012E0008A95E2F78091BA059091BB05822B932BEA
:1012F0000E946609089521E030E002C0220F331FEA
:101300008A95E2F7209530958091BA059091BB05BA
:10131000822393230E94660908959B01677091E0E0
:1013200001C0990F6A95EAF763E0369527956A95AB
:10133000E1F7220F331F220F331FFA01E20FF31FD1
:1013400040E050E0682F70E08191DF0111979B0130
:10135000042E02C0369527950A94E2F72170219554
:101360002827292328272C934F5F5F4F44305105AE
:1013700059F708959C01982F977083E0369527952B
:101380008A95E1F7220F331F220F331FFB01E20F73
:10139000F31F40E050E080E0219130E0092E02C0D0
:1013A000369527950A94E2F721703327042E01C061
:1013B000220F0A94EAF7822B4F5F5F4F44305105AA
:1013C00059F70895282F862F9C3070F4293058F44F
:1013D000622F70E029E0929F600D711D11244BE196
:1013E00055E00E948D0908959C5F9230E0F7622FCE
:1013F00070E047E155E0F5CF292F9C3068F4893043
:1014000090F490E06BE175E039E0239F800D911D31
:1014100011240E94BA0908952C5F223020F467E15C
:1014200075E090E0F6CF80E008958091BE05909140
:10143000BD05981301C008958F5F8770FACFE82F1C
:10144000872F7C30C0F46930D0F5E230C0F570E011
:1014500029E0829F600D711D1124CB012CE6E29FD3
:10146000800D911D1124FC01EE0FFF1FE158FF4E6E
:101470008591949108957D3F81F48E2F862B823043
:10148000F0F4F0E0EE0FFF1FE60FF11DEE0FFF1F6F
:10149000EE0FFF1FE15DFD4EEBCF7C3F81F48E2F01
:1014A000862B823060F4F0E0EE0FFF1FE60FF11D97
:1014B000EE0FFF1FEE0FFF1FEF5CFD4ED9CF80E058
:1014C00090E008952091AD0522FF06C0982F9871F5
:1014D0009830C1F4877F84609091AE05392F3170C8
:1014E000927023FF21C0482F4871483191F4877EC4
:1014F00084619923B1F0982F9171913191F48E7E8E
:1015000088610FC0982F9471943031F78B7F886079
:10151000E3CF482F4471443139F48B7E88619111B7
:1015200018C024FD877E0895332369F0382F387161
:10153000383019F4877F8160DCCF382F317131303A
:1015400011F48E7F8860992361F3982F98719831F8
:1015500091F6877E8161E5CFCF93DF93EC01803EEA
:10156000910509F46FC080F58133910509F4B4C089
:1015700088F48932910509F4A4C08A32910509F4EE
:10158000B2C0019781F1CE010497813A910508F02C
:1015900065C029C08933910509F448C08238910596
:1015A00009F444C08533910509F486C08D3C91054A
:1015B00008F0E4C0883A910508F09CC0853A91058E
:1015C00010F3A497D0640FC0843E910509F459C06C
:1015D00070F4823E910509F444C0833E910509F4FC
:1015E00045C0C1EED0E0CE01DF91CF910895863E97
:1015F000910509F451C0873E910509F452C0811547
:1016000022E5920708F097C0811540E5940708F499
:1016100081C08F710E94620A35E0D695C7953A95D0
:10162000E1F7CF709C2FEC01D069DDCF8091AD0543
:1016300083708111F7C08091AE0583FFD4CFC9E2DA
:10164000D0E0D1CF8091AD0580FD43C09091AE0533
:1016500090FFC9CFC3EED0E084FFC5CFC0E0D0E09B
:10166000C2CF8091AD0582FDF5CFBDCF8091AD0594
:1016700082FDD5C09091AE0590FDD4C084FFB3CF5C
:10168000EDCF8091AE0581FFAECF8091AD05C7EE65
:10169000D0E084FDE3CFA7CF8091AD0583FDF7CFE8
:1016A000A2CF8091AD0583FDC0C09091AE0591FFA2
:1016B000E5CFC4EED0E097CF8091AD0585FF93CF05
:1016C000BECF8091AD0585FDB3C08091AE0583FF8F
:1016D0008ACFC9E3D0E087CF8091AD0586FF83CF65
:1016E000CAE2D0E080CF8091AD0586FF7CCFC1E318
:1016F000D0E079CF885A9109499708F0AFCFC85AFE
:10170000D0E0CC0FDD1FC454DE4F0990D881C02D2E
:10171000D46469CF8115904498F5C11580E2D8074B
:1017200008F070C0C83ED10508F485C0CE019A9576
:101730008F3F9E412CCF803642E5940778F4803469
:1017400052E59507A8F5C03282E5D807E0F0CF71E1
:10175000D0E0DC2FCC27C16FD06A45CF803822E59E
:101760009207D8F1805C9245809708F077CFDC2F04
:10177000CC27CC27DF71C06FD06A35CFD06533CF8F
:10178000DF70D06A30CF8C2F8695869540E2849F9B
:10179000C0011124C37021E030E0A90102C0440F50
:1017A000551FCA95E2F7EA01C82BD92BDD681BCF7C
:1017B00086958695877050E2859FC0011124C3707D
:1017C00021E030E0A90102C0440F551FCA95E2F79D
:1017D000EA01C82BD92BDC6806CF869586958770E1
:1017E00050E2859FC0011124C37021E030E0A901BF
:1017F00002C0440F551FCA95E2F7EA01C82BD92B46
:10180000DA68F1CE8D2F8F710E94620A90E0982FD6
:10181000882788279F718C2BEC01D062E4CEC2EE22
:10182000D0E0E1CEC0EED0E0DECEC6EED0E0DBCE42
:10183000C5E3D0E0D8CEC5EED0E0D5CEA0E0B0E094
:10184000E4E2FCE00C9457338C01E090BA05F09090
:10185000BB058091B8059091B905E82AF92ACFE037
:10186000D0E0CC24C394D12CC6010C2E02C0880F2A
:10187000991F0A94E2F78E219F21892B49F4219721
:1018800098F7B12C8B2DCDB7DEB7E9E00C9473330C
:10189000BC2EB8018C2F0E941F0A0E94AC0A01972F
:1018A00071F3F0CF0F931F93CF93FC0182810081DE
:1018B0001181882391F0662381F0C8010E941E0CDB
:1018C000C82F682FC8010E94E209B8018C2F0E941E
:1018D0001F0ACF911F910F910895C8010E94FC0922
:1018E000C82FF3CFCF93DF93D82FC92F0E941E0CA0
:1018F0006D2F7C2F0E941F0A0E94AC0ADF91CF91AE
:101900000895FC0183819481892BC9F081819081A4
:1019100089238F3FA1F0808191810E94720C282F32
:1019200092959F70963091F060F4925F9F70923024
:1019300030F481E0203F79F030F4283E30F080E050
:1019400004C09A5FF3CF243FD1F7089581E0283E89
:1019500018F0213FF9CF0895089580E00895089583
:10196000A0E0B0E0E6EBFCE00C945633E901E42F94
:10197000F0E0EC51F84F61110BC0E4919E2F8E2FD7
:101980008983E8839A83CDB7DEB7EAE00C9472339B
:10199000282F30E0062F10E0F491EF2F86E0829F91
:1019A0006001839FD00C1124EE24EA94F12CC6012F
:1019B000B7010E943A33220F331F45E5469FC0010D
:1019C000479F900D1124281B390B822F880F280F59
:1019D000C701801B910BF89FA001F99F500D1124A6
:1019E000952F209F5001219FB00C1124AB2CBB24BC
:1019F000D701AA19BB095D01FA9DD001FB9DB00D6D
:101A000011248B2F5701A21AB1089501209F500174
:101A1000219FB00C309FB00C1124AB2CBB24EA18D2
:101A2000FB08FE9D9001FF9D300D11246330710570
:101A3000C9F01CEFC11613E0D10650F461307105F6
:101A400009F49ECF6230710589F08E2FE32F98CF75
:101A50006430710571F066307105B9F3E52F9B2F85
:101A60008F2F8ECFEB2F852F9F2F8ACF852F932FF0
:101A700087CF832FE52FF8CF8091B205823028F4ED
:101A8000817082608093B20508958A34E8F3817092
:101A90008864F8CFEFEAF5E0118282818460828366
:101AA0000895FA01882311F009950895FB01FCCFF0
:101AB000FC01680F791F8FEF91E3E617F70709F430
:101AC00008952191822728E030E087FF08C0880F21
:101AD00089272150310921153105B9F7EECF880F3B
:101AE000F8CF2091470236E0839FC0011124269F42
:101AF000800D911D1124811522E0920714F080E0E1
:101B000090E08A539D4F909346028093450208953A
:101B10009B01FB01EA53FD4F90819817C1F0808330
:101B200085E0369527958A95E1F781E090E0AC0154
:101B300002C0440F551F2A95E2F78091C804909186
:101B4000C904842B952B9093C9048093C8040895ED
:101B5000A0E0B0E0EEEAFDE00C9454337C016B01B0
:101B6000C0E0D0E000E010E0AA24A394B12CFE0174
:101B700083E0F695E7958A95E1F7EE0DFF1DE49178
:101B80008C2F8770950102C0220F331F8A95E2F7D0
:101B9000E223EE23B1F048013FEF831A930AF601E6
:101BA000E00FF11F8491BE010E94880D84012196EF
:101BB000C11582E0D807D9F6CDB7DEB7ECE00C94BA
:101BC0007033BE0180E00E94880DF1CFA3E0B0E049
:101BD000ECEEFDE00C945E339C018091200290912C
:101BE000210282179307A1F0309321022093200253
:101BF000E0910D05F0910E05309751F083E0898357
:101C00003B832A830680F781E02DCE01019609955A
:101C10002396E2E00C947A33A3E0B0E0E2E1FEE048
:101C20000C945E339C0180911E0290911F028217DA
:101C30009307A1F030931F0220931E02E0910D053F
:101C4000F0910E05309751F084E089833B832A831D
:101C50000680F781E02DCE01019609952396E2E0FA
:101C60000C947A33A4E0B0E0E8E3FEE00C945E3339
:101C70008FB7F89420911A0230911B0240911C02F8
:101C800050911D0229833A834B835C838FBF698106
:101C90007A818B819C812496E2E00C947A330E94B5
:101CA000320E0895A4E0B0E0E8E5FEE00C945C3369
:101CB000462F572FBC012FB7F89480911A029091AC
:101CC0001B02A0911C02B0911D022FBF8C019D012F
:101CD000041B150B260B370BC901B8012496E4E051
:101CE0000C9478338091190208950895FC019B01AA
:101CF00080910F02909110028617970740F0672B92
:101D000029F48091E8008E778093E800C90140E0D3
:101D1000009741F4411106C08091E80082FF2FC076
:101D200080E0089520910B052223A9F12530A9F127
:101D30002091E80023FD2DC02091E80022FDECCF8A
:101D40002091E80020FFE4CF3091F3002091F200D1
:101D5000009719F02830310558F041E0283031055E
:101D600009F040E02091E8002E772093E800D0CFE2
:101D700041914093F10001972F5F3F4FE9CF809150
:101D80000B05882341F0853041F08091E80083FF06
:101D9000C3CF81E0089582E0089583E008958091A3
:101DA000090287FF13C08091E80082FF06C080917E
:101DB000E8008B778093E80004C080910B058111C7
:101DC000F2CF089580910B058823D9F38091E80024
:101DD00080FFF8CF8091E8008E77ECCF2091E4006F
:101DE0003091E50095E6A9018091EC00817088238F
:101DF00031F08091E80080FF06C080E008952091D6
:101E0000E80022FD1BC080910B05882391F08530EE
:101E100091F08091EB0085FD10C02091E40030919D
:101E2000E5004217530701F391509111DCCF84E094
:101E3000089582E0089583E0089581E00895E8ED33
:101E4000F0E080818E7F80831092E2001092DA00B1
:101E50001092E100A0EEB0E08C9181608C938081C3
:101E60008F77808319BCA7EDB0E08C918E7F8C9327
:101E700080818F7E8083109208020895CF92DF9236
:101E8000EF92FF92CF93DF9300D000D0CDB7DEB7B3
:101E900090910F01981304C090910402903349F17E
:101EA00080930F0190E39093040210920302282F75
:101EB00030E040E050E08AE0C82ED12CE12CF12C3B
:101EC000CA01B901A70196010E94B33329833A835D
:101ED0004B835C83605D60930202CA01B901A70174
:101EE00096010E94B333605D60930102205D2093F0
:101EF000000280E092E00F900F900F900F90DF9122
:101F0000CF91FF90EF90DF90CF900895882341F01C
:101F100082E080939E028BE48093430181E00895E8
:101F200080919E028230D1F781E080939E020E94D0
:101F3000320E60939A0270939B0280939C0290935E
:101F40009D02ECCF982FE42FE2709093E900891363
:101F500008C0762F242F50E0E11111C091E0980FB6
:101F6000F4CF7091EC002091ED005091F00021FD34
:101F700006C09F5F973049F78093E900089530913C
:101F8000EB003E7F3093EB003091ED003D7F3093CE
:101F9000ED003091EB0031603093EB007093EC007A
:101FA0002093ED005093F0002091EE0027FDE1CF4B
:101FB0000895A0E0B0E0EFEDFFE00C945833C8EDD9
:101FC000D0E088818F7E8883E7EDF0E080818160BA
:101FD000808384E082BF81E08093080288818E7FC5
:101FE000888302EE10E0F80110821092DA0081EE90
:101FF000C82ED12CF601108288818F778883888142
:102000008068888388818F7D888319BC10920B0536
:102010001092070210924B021092060290EEE92EE7
:10202000F12CF70180818B7F808388818160888398
:1020300042E060E080E00E94A20FF60180818E7F86
:102040008083F801808181608083808188608083C3
:10205000F70180818E7F8083888180618883CDB7FE
:10206000DEB7E8E00C94743380910C05811110C048
:102070008091D80080618093D8008AE18A95F1F739
:1020800000C08091D90080FF0AC081E080930C05D8
:1020900081E090910C05913009F080E0089582E094
:1020A00080930C050E941F0F10920B05F1CFCF9368
:1020B000C82F0E943410882329F0C1FB882780F99B
:1020C0000E945A09CF9108950E943410882359F034
:1020D000E0910D05F0910E05309729F00190F08107
:1020E000E02D0995089580E00895CF92DF92EF9258
:1020F0000F931F93CF93DF93CDB7DEB76E970FB6D5
:10210000F894DEBF0FBECDBF409120018091B20593
:1021100080FF4FC0E5EDF7E09E012F5F3F4F8E013E
:10212000015E1F4FC901649170E0DB01AA0FBB1F64
:10213000A60FB71FA557BA4FCD90DD90EC90D901EF
:10214000CD92DD92ED929D013196A017B10759F71E
:1021500020911F0130E0B901660F771F260F371F4E
:10216000820F931F229A65B16B7F75B17460EFB7D0
:10217000F89450E09A01220F331F240F351F280FC7
:10218000391F8217930759F5EFBF8FE594E0019748
:10219000F1F700C000006E960FB6F894DEBF0FBED8
:1021A000CDBFDF91CF911F910F91EF90DF90CF9036
:1021B00008958091210190912201282F30E0F901AA
:1021C000EE0FFF1FE20FF31FE557FA4F891708F0D4
:1021D000A1CF1182108212828F5F3396F7CFDC017C
:1021E0004D91CD0158E075B9000000C047FF65B9B9
:1021F000440F000000C000C000C065B900C05A957F
:1022000091F7BFCF0F931F93CF93DF93EC0100E0C3
:1022100010E040912301842F90E0081719076CF01B
:102220000E9475108C8190E00196817099278C83B3
:10223000DF91CF911F910F91089580912101800F1F
:10224000912F911D9C01220F331F280F391F2557F5
:102250003A4F9C816091B4058091B305469550E05A
:10226000041715074CF4992349F04091B5050E94D5
:10227000B00C0F5F1F4FCDCF9923B9F340E0F7CFDC
:10228000EF92FF921F93CF93DF93EC0110E0EE24C7
:10229000EA94F12C60912301161770F00E947510DA
:1022A0009A818C8190FF25C08F5F8C83DF91CF91C5
:1022B0001F91FF90EF90089580912101810F992740
:1022C000991F9C01220F331F280F391F25573A4FA2
:1022D00070E0C7010E949F33962F8C814091B50515
:1022E0006091B405199F800D11240E94B00C1F5FEE
:1022F000D1CF8150DACFA0E0B0E0E1E8F1E10C9479
:102300005533EC01A09023018C819A8190FD0DC082
:10231000BB24B39481110DC08FEF8A0DBB24B394FD
:1023200080932A0281E08C8304C0BB24BA94882362
:10233000B9F3E12CF12CEA14B8F00E9475109091D9
:102340002A02E1E0BE1254C08091230181509923FA
:1023500019F08FEF890F91E080932A029C83CDB70B
:10236000DEB7EBE00C947133809121018E0D9F2D2F
:10237000911D8C01000F111F080F191F05571A4FCF
:10238000F80111821082128234E0C32ED12C912CDC
:1023900080912A02890D8B303CF16AE00E949133D2
:1023A000892F082E000C990B8E159F0591F48091B2
:1023B000B5058C9DA0018D9D500D11245595479517
:1023C0005595479598016091B4058091B3050E9499
:1023D000B00C9B0CF1E0CF1AD108C114D104C1F6A6
:1023E0008FEFE81AF80AA7CF87FFDBCF8A0DD9CF86
:1023F000892F90E001966091230170E00E949F3345
:10240000982FAACF0F931F93CF93DF93EC018C816A
:10241000811109C081E08C831092290292E090938F
:102420001301809312011091210120912201812F2B
:1024300090E0FC01EE0FFF1FE80FF91FE557FA4F80
:10244000821750F100E060912301061758F10E94B5
:1024500075108091120120912902280F20932902E2
:1024600090911301980F90931301191654F4022EB2
:10247000000C330B409123014150550B24173507B5
:1024800034F0819580931201813009F41C82DF9130
:10249000CF911F910F9108951182108212828F5F48
:1024A0003396CECF202F30E070E0C9010E949F33D9
:1024B000810F90E040912902042E000C550BFC0185
:1024C000EE0FFF1FE80FF91F24173507ACF04091FE
:1024D0001301042E000C550B421753076CF09F019B
:1024E00025573A4F4091B5056091B4058091B305E9
:1024F0000E94B00C0F5FA7CFE557FA4F11821082F0
:102500001282F8CFAEE0B0E0E8E8F2E10C945A3382
:102510008D879E87AD85BE8514961C91212F30E056
:10252000D9010E9402349B01AC010E9418346983D6
:102530007A838B839C83E0E2F0E0E11BF109A5E55F
:10254000B0E09B01AC010E94183469877A878B87C1
:102550009C879F01DF010E94FA339B01AC010E941E
:1025600023346D837E838F8398879B01AC0189819F
:102570009A81AB81BC81280F391F4A1F5B1F698577
:102580007A858B859C850E94B333022F30E00A3216
:1025900048F5A901440F551F420F531F5595479504
:1025A000142F1095F12C85E5E82EE01A8091230177
:1025B000F81630F10E947510AD85BE8514969C9179
:1025C00081E0992319F0903219F48FEF8093110173
:1025D00080911101890FED85FE8584832E96E6E0BA
:1025E0000C94763385E590E0821B930BAC01440F8D
:1025F000551F480F591F57FFD1CF4F5F5F4FCECFA9
:102600008E2DF1FC802F409121014F0D5527551F34
:102610009A01220F331F240F351F25573A4F412FA0
:102620006091B4050E94B00CF394C0CFE2EBF5E0EA
:1026300080818E7F80830E944A0DEFEAF5E08281DF
:10264000816082830E94751008959091B20590FF79
:1026500011C09091210150912201292F30E0F90100
:10266000EE0FFF1FE20FF31FE557FA4F951718F013
:102670000E94751008958183608342839F5F339623
:10268000F5CFA3E0B0E0E7E4F3E10C945C338C0118
:102690008091280281110AC09E012F5F3F4F4FEFAA
:1026A0006FEF0E94B00C8A8180932802F801648148
:1026B000613049F06230D1F08091280240E0662319
:1026C00031F040E015C06091280240E080E00E94B7
:1026D0002513F801848190E0019663E070E00E9488
:1026E0009F3384832396E4E00C947833409128024E
:1026F00080E060E0ECCFA3E0B0E0E1E8F3E10C942F
:102700005E339091B20590FF0AC09E012F5F3F4F4C
:102710000E94B00C4B8169818A810E942513239607
:10272000E2E00C947A33CF93DF93EC01EC81F0E09C
:10273000EB52F94F4491E2EBF5E0628181810E9416
:102740007B138C818F5F8C83DF91CF910895CF9322
:10275000DF93EC01E2EBF5E0438162818C810E9422
:102760007B138C818F5F8C83DF91CF91089581E003
:102770008093E00080E28093D8001092C9008FE13E
:102780009EE40197F1F700C0000087E090EBDC01C8
:102790008093390790933A07A0933B07B0933C0787
:1027A00088E19CE00FB6F894A895809360000FBE76
:1027B00090936000FFCF0F931F93CF93DF93EB01B4
:1027C0008A0190910B05943079F58093E9008FEFA1
:1027D0009091E80095FD07C095ED9A95F1F70000FE
:1027E00081508111F5CF8091E80085FF1DC00E94C6
:1027F000EE0E811114C08091E80085FD06C0809125
:10280000E8008E778093E800F2CF88818093F10012
:10281000015011090115110511F02196ECCF80919D
:10282000E8008E778093E800DF91CF911F910F91A0
:102830000895CF93DF93D82FC92F48E050E0682F39
:10284000792F81E00E94DB1388E0ED2FFC2FA1E1BE
:10285000B2E001900D928A95E1F7DF91CF91089552
:10286000BC0143E050E082E00E94DB130895A0E049
:10287000B0E0EDE3F4E10C945633F82EE92EB62ED9
:10288000A72E8A018091FF01CC24C394D12C8A30D9
:1028900018F48AE0C82ED12CC1E0D0E06B2D7A2D3F
:1028A0008F2D9E2DF8010995811116C02196CC1609
:1028B000DD0694F0CC9FC001CD9F900D900D1124AA
:1028C00020E030E045E34A95F1F700002F5F3F4FED
:1028D00028173907B9F7E2CFCDB7DEB7EAE00C9495
:1028E00072338091B7059091BC05892B8093F001DC
:1028F00048E050E06FE075E080EF91E00E944134E5
:10290000892BA9F088E0E0EFF1E0AFE0B5E00190BD
:102910000D928A95E1F7E0910D05F0910E05309743
:1029200031F00280F381E02D80EF91E00995089568
:102930000F931F93CF93C82F882339F18CEF8C0FFF
:10294000813AB0F502EF11E0F8018191C81709F161
:1029500021E0E83FF207C9F7EFEF80E0D8019D9151
:102960008D01C91781F0EF3F19F4911101C0E82FD3
:102970008F5F863099F7EF3F31F00E2E000CFF0B82
:10298000E051FE4FC2830E947114CF911F910F91AD
:102990000895E2EFF1E08191C81303C0DF011197C0
:1029A0001C9231E0E83FF307B1F70E947114D4CFD5
:1029B00080E28C0F883068F4C77081E090E001C03D
:1029C000880FCA95EAF7C091B705C82BC093B70521
:1029D000DACF8BE58C0F833038F42C2F2452330B55
:1029E000C9010E94E60DD1CFC85AC93170F6EC2F4B
:1029F000F0E0EE0FFF1FE454FE4F808191810E94B2
:102A00000C0EC3CF8823C1F19CEF980F913A78F454
:102A1000E2EFF1E09191891303C0DF0111971C925D
:102A200041E0E83FF407B1F70E947114089590E285
:102A3000980F983088F4877021E030E0A90102C037
:102A4000440F551F8A95E2F7CA0180959091B7050A
:102A500089238093B705E8CF9BE5980F933028F43E
:102A600080E090E00E94E60D0895885A893120F4B4
:102A700080E090E00E940C0E0895882339F0909138
:102A8000B705892B8093B7050E9471140895882398
:102A900041F080959091B70589238093B7050E94F6
:102AA000711408951092B705E2EFF1E086E0DF01BE
:102AB0001D928A95E9F780E090E00E94E60D80E0A3
:102AC00090E00E940C0E1092BC050E9471140895B3
:102AD0000E9452152FEF84E39CE0215080409040EB
:102AE000E1F700C0000088E19CE00FB6F894A895DB
:102AF000809360000FBE90936000FFCFAAE2B0E029
:102B0000E4E8F5E10C945D3389E092E0FC01019684
:102B10002091F100208322E081319207B9F7809162
:102B20000A02893009F456C0C8F4823009F4B2C0F0
:102B3000833009F481C0813071F18091E80083FF16
:102B4000E6C08091090290910A029A3008F0DFC035
:102B5000E92FF0E0EF55FB4C0C94F4338A3009F484
:102B600088C08B3051F780910902813231F7809112
:102B70000D0290910E02892B01F78091E800877F6A
:102B80008093E8000E94CF0E80910B028093100189
:102B90000E945215D2CF80910902813A71F680913C
:102BA000E800877F8093E80080910D0290910E02EB
:102BB000892B61F060E080E090E070E00E94760E8A
:102BC0008091E8008B778093E800B7CF68E081E1DF
:102BD00092E0F3CF80910902813209F0AECF80916B
:102BE0000D0290910E02029708F0A7CF8091E800A5
:102BF000877F8093E8008091E80082FF18C0909161
:102C0000F3008091F200029731F48091F10081305D
:102C100011F0863021F48091F100809319028091A7
:102C2000E8008B778093E8000E94CF0E86CF8091DA
:102C30000B058111E0CF81CF80910902813A09F023
:102C40007CCF80910D0290910E02892B09F075CFF7
:102C50008091E800877F8093E8008091E80080FF02
:102C6000FCCF809110018093F1008091E8008E7775
:102C7000D9CF80910902813209F05FCF8091E800BD
:102C8000877F8093E8000E94CF0E80910C02809392
:102C9000050253CF80910902813A09F04ECF80910D
:102CA000E800877F8093E8008091E80080FFFCCFF8
:102CB00080910502D8CF803889F0823841F5809123
:102CC0000D028F70873018F58093E9008091EB003A
:102CD00085FB882780F91092E90006C080910602E2
:102CE00090914B02911182609091E800977F9093B0
:102CF000E8008093F1001092F1008091E8008E7757
:102D000023C0811116C080910B02813011F1809196
:102D1000E80083FF0AC08091E800877F8093E80085
:102D20008091EB0080628093EB00AA96E3E00C9424
:102D30007933823061F780910B02882389F01092F9
:102D4000E9008091E800877F8093E8000E94CF0E21
:102D5000DECF81E0933009F080E080934B02EFCF2B
:102D600080910D028F702FEF280F263080F6809310
:102D7000E9002091EB0020FFE2CF933031F4809105
:102D8000EB0080628093EB00DACF9091EB009061D2
:102D90009093EB0021E030E0A90102C0440F551FE1
:102DA0008A95E2F74093EA001092EA008091EB00E6
:102DB0008860E8CF8111ABCF10910B021F77809113
:102DC000E3008078812B8093E3008091E800877F87
:102DD0008093E8000E94CF0E8091E80080FFFCCF36
:102DE0008091E30080688093E30083E0111101C0CB
:102DF00082E080930B058BCF8058823008F087CF1C
:102E000040910B0250910C024C3D83E0580799F51C
:102E100083E08A838AE289834FB7F894DE011396B0
:102E200020E03EE051E2E32FF0E050935700849120
:102E300020FF03C082958F703F5F8F708A30C8F08B
:102E4000895C90E08D939D932F5F243161F74FBF94
:102E50008091E800877F8093E8006AE270E0CE010D
:102E600001960E94760E8091E8008B778093E800AF
:102E70004ECF805DE6CF20910D0230910E02852F5E
:102E800099278330910509F160F48130910509F4A7
:102E900072C0029709F03BCF8BE390E0E4E2F1E0EF
:102EA00029C08132910509F45AC0829709F02FCFC9
:102EB0002115310509F469C02130310509F027CF0A
:102EC00082E390E0E2EBF0E015C0CA0199274130BF
:102ED000B1F18230910509F43AC0892B09F017CF7E
:102EE000E1E9F1E0E4918E2F90E0E1E9F1E0009773
:102EF00009F40DCF2091E800277F2093E80020916E
:102F00000F02309110028217930708F49C0140E0F1
:102F10002115310509F03EC041113CC08091E80007
:102F200082FDA1CF80910B05882309F49CCF8530C9
:102F300009F499CF8091E80083FFF0CF94CFEDE7BB
:102F4000F1E0E4918E2F90E0EDE7F1E0D0CFE1E702
:102F5000F1E0E4918E2F90E0E1E7F1E0C8CF211598
:102F6000310571F02130310509F0D1CE89E090E0D2
:102F7000EFE4F1E0BFCF82E190E0EFE5F1E0BACF1E
:102F800089E090E0E6E3F1E0B5CF80E490E0E4EEA4
:102F9000F0E0B0CF80910B05882309F464CF853031
:102FA00009F461CF8091E80083FD5DCF8091E80056
:102FB00082FDB4CF8091E80080FFAACF9091F3000A
:102FC0008091F2002115310519F08830910550F0FB
:102FD00041E0089709F040E08091E8008E77809307
:102FE000E80096CF44914093F10031962150310989
:102FF0000196E8CF803809F08ACE8091E800877F7B
:103000008093E800809107028093F10076CE8111D1
:103010007ECE10910B02123008F079CE8091E8003C
:10302000877F8093E800109307020E94CF0E112340
:1030300081F084E080930B0542E061EC81E00E9426
:10304000A20F42E261EC82E00E94A20F80910B0588
:103050005ECE8091E30087FDECCF81E0EBCF67EEA1
:103060007EEF80E090E00E94893460E082E090E0B2
:103070000E946B3460E083E090E00E946B34109219
:10308000B9051092B80560E074E184E090E00E9418
:10309000893460E086E090E00E946B346FEF87E057
:1030A00090E00E946B3440E050E0BA0188E090E08C
:1030B0000E947D3460E08DE090E00E946B3440E03F
:1030C00050E0BA0188E190E00E947D3460E087E141
:1030D00090E00E946B3440E050E0BA018CE190E057
:1030E0000E947D3460E070E080E290E00E948934CC
:1030F00040E050E0BA0188E190E00E947D3440E079
:1031000050E0BA018FE090E00E947D3440E050E052
:10311000BA0183E190E00E947D3408950F931F93DC
:10312000CF93DF938B01D82FC92F0E943C0DA801AC
:103130006D2F7C2F88E090E00E947D34DF91CF914D
:103140001F910F910895E2EBF5E083E080831182F7
:103150008FEF828383831482EFEAF5E082818360BC
:10316000828363E070E08FEF9FEF0E948E180895D6
:10317000A4E0B0E0EEEBF8E10C945E338091B6058C
:10318000833018F48F5F8093B6058091B2059091DB
:10319000B305A091B405B091B505BC01CD010E9465
:1031A0008E182496E2E00C947A33A4E0B0E0EBEDC4
:1031B000F8E10C945E338091B605882319F08150B4
:1031C0008093B6058091B2059091B305A091B405A6
:1031D000B091B505BC01CD010E948E182496E2E0A5
:1031E0000C947A33A7E0B0E0E8EFF8E10C945633A2
:1031F000F82ED62EE42EB22E2091B20520FF3FC02D
:103200008091B3058F1108C09091B405961304C046
:103210009091B505941729F09091B1059260909323
:10322000B105E22FE695AE2FB0E0A358BE4F9C91BA
:103230009093AF052E7F223031F59E012F5F3F4FD7
:103240004E2D6D2D8F2D0E94B00C4B8169818A818E
:103250000E9425138F2D8093B305D092B405E09280
:10326000B505BB2061F08091B2059091B305A091A6
:10327000B405B091B505BC01CD010E948E1827960A
:10328000EAE00C947233923019F4E090B505E2CF85
:10329000963009F39930F9F29931E1F6E9518E2F20
:1032A0008170A82EE695F0E0E152F84FE491C12C30
:1032B0000E2F10E060912301C61618F00E947510C1
:1032C000C9CF2C2D30E0C09EC001C19E900D1124AD
:1032D00070E00E943A338F2DA11013C0860F909199
:1032E0002101A901490F511D9A01220F331F240FFB
:1032F000351F25573A4F4E2D6D2D0E94B00CC394AB
:10330000D9CF861BECCFE2EBF5E0818121E0438150
:103310006281885F0E94F2180895E2EBF5E08181F6
:1033200021E04381628188500E94F2180895E2EB07
:10333000F5E0628121E1620F08F46FEF21E0438143
:1033400081810E94F2180895E2EBF5E0628121E1AB
:10335000621B08F460E021E0438181810E94F21841
:103360000895E2EBF5E0438121E1420F08F44FEFCD
:1033700021E0628181810E94F2180895E2EBF5E07C
:10338000438121E1421B08F440E021E06281818118
:103390000E94F2180895A5E0B0E0E1EDF9E10C9487
:1033A0005033462E4A01522EC32E3701A82E880FC5
:1033B000BB08C5010E94C532D82E882309F470C00D
:1033C000C50133E0880F991F3A95E1F7FC01E45BF2
:1033D000FE4F2381422F50E0222311F041E050E0C4
:1033E000845B9E4FDC0114966D917C916D507B4FF8
:1033F000CE0101960E944E34D4018D919D910D9085
:10340000BC91A02DBC01CD010E94520E6A837B832A
:103410008C839D83643671058105910538F4B30171
:10342000C8010E94580D99818917D1F1E42C042C10
:10343000000CFF08C7010E94C532D82E811106C0BA
:10344000D12C8D2D2596E0E10C946C33C70123E03F
:10345000880F991F2A95E1F7FC01E45BFE4F438139
:1034600050E06416750608F4A301845B9E4FFC01CE
:10347000648175816D507B4F852D9C2D0E944E344B
:10348000B301C8010E94580D99818913D9CF0E94B8
:10349000320ED4016D937D938D939C931397D1CF6E
:1034A000A301B801852D9C2D0E944E34CACFACE0FB
:1034B000B0E0EDE5FAE10C9458336B018CE0E82EB6
:1034C000F12C04EF14E09E012F5F3F4F4FEE54E0CC
:1034D00061E080E00E94CB19882349F09CE0FE0166
:1034E0003196A3EEB4E001900D929A95E1F79CE03D
:1034F000E3EEF4E0D60101900D929A95E1F72C9657
:10350000E8E00C947433A6E0B0E0E9E8FAE10C944A
:1035100056338D837B01A42EB22E3E836801DB01DE
:103520008D919D910D90BC91A02DBC01CD010E946B
:10353000520E69837A838B839C836436710581057F
:10354000910510F4AA2031F1BD810B2F0B2E000C38
:10355000110B88E0B802F0011124E45BFE4F818179
:1035600092818D509B4F408150E0C416D50608F4DF
:10357000A6016B2D7E810E944E34C8010E94C53287
:10358000882349F00E94320ED7016D937D938D936D
:103590009C93139781E02696EAE00C947233A8E09E
:1035A000B0E0E5EDFAE10C945C3325E0E2EBF5E008
:1035B000CE010196DC0101900D922A95E1F7309140
:1035C000AF052091B0055091B1053E832F835887F8
:1035D00041E09C01511101C040E008E010E067EDBE
:1035E00074E084E00E94831A81111092B10528963C
:1035F000E4E00C947833A1E0B0E0E1E0FBE10C946E
:103600005C338091D204898320910A0530E090E0F8
:1036100041E02817390709F440E001E010E09E017D
:103620002F5F3F4F63ED74E085E00E94831A21967F
:10363000E4E00C9478331F93CF93DF93982F162FE9
:1036400081E09A3019F09D3039F480E00E94AC1B83
:10365000DF91CF911F910895C0914502D09146020C
:1036600086E0FE01A2E2B2E001900D928A95E1F7B8
:10367000903E90F186E0FE0111928A95E9F7C091A3
:103680004502D0914602111133C046E050E0BE0120
:1036900082E292E00E9441349E01265C3240892BF6
:1036A00091F52A5F3F4F40914702642F70E0C901B6
:1036B0000E943A33481B463010F4240F311D211567
:1036C00072E0370710F020E030E02A533D4F30938E
:1036D000460220934502BCCFF6E09F9FB001112423
:1036E0006B567E4F46E050E0CE010E942B34C7CF90
:1036F0009E012A5F3F4FFE012E173F0731F2808166
:1037000080958193F9CFC90145E0969587954A95B3
:10371000E1F741E050E0BA0102C0660F771F8A95D9
:10372000E2F7CB016091C8047091C904862B972BF6
:10373000B9016B5F7F4FE5E076956795EA95E1F714
:1037400002C0440F551F6A95E2F7842B952B909386
:10375000C9048093C804A5CFCF93382FE0914502C8
:10376000F0914602E65CF24020914702622F70E041
:10377000CF010E943A33281B822F332369F066E081
:103780000E948533C82FC15010F4CF91089560E096
:1037900080E20E941B1BF7CF9F01280F311D2115CE
:1037A000324018F080E0E0E0F0E08E0F9F2F911D96
:1037B0008A539D4F9093460280934502E6CF1F9314
:1037C000CF93DF93EC01162FFE018491811104C089
:1037D000DF91CF911F910895612F0E941B1B2196AD
:1037E000F3CF0F931F93CF93DF93EC01FC01019074
:1037F0000020E9F78F0101501109C017D10728F007
:10380000DF91CF911F910F91089561E089910E94FE
:103810001B1BF3CFA0E0B0E0E0E1FCE10C945833D7
:103820006C017B0164E670E088E70E948630EC0161
:1038300097FD11C08601EC0CFD1CF801849164E633
:1038400070E00E94F530EC01892B29F40F5F1F4FC7
:103850000E151F0591F70E947731CE01CDB7DEB767
:10386000E8E00C9474338091D004882371F0809147
:10387000D204882351F063E070E08FEA90E00E9468
:103880000A1C892B11F41092D2040895A4E0B0E030
:10389000ECE4FCE10C945E338091D0048823F9F0D1
:1038A0000E94320EDC01CB01805D9A48AF4FBF4FC2
:1038B0008093CA049093CB04A093CC04B093CD041E
:1038C0008091D20481110BC063E070E08CEA90E03B
:1038D0000E940A1C892B19F481E08093D20424965B
:1038E000E2E00C947A338F938FB78F939F93EF938B
:1038F000FF93909138078091370798130AC088E9A1
:103900008093C900FF91EF919F918F918FBF8F910D
:103910001895809137078F5FE82FF0E0E95CF94F49
:1039200090819093CE0080933707ECCF2F932FB7E1
:103930002F938F939F93EF93FF939091CE0080915D
:1039400036068F5F803408F080E020913506281716
:1039500039F0E82FF0E0EB50FA4F90838093360671
:10396000FF91EF919F918F912F912FBF2F911895DC
:103970002FB7F89480911A0290911B02A0911C021B
:10398000B0911D022FBF08956091B205669570E059
:103990004BE050E084E191E00E943434892B19F42B
:1039A00081E08093B0050E94B81C90938D028093B3
:1039B0008C028091B10584608093B1050895A4E0E4
:1039C000B0E0E5EEFCE10C945E339091B20590FF1F
:1039D00039C08823D9F18532D8F58F77880F909137
:1039E000B2059170892B8093B2058091B1058160F9
:1039F0008093B105662361F08091B2059091B30583
:103A0000A091B405B091B505BC01CD010E948E18FE
:103A10006091B205669570E04BE050E084E191E082
:103A20000E943434892BB1F00E944A0D81E08093CA
:103A30008F0220E04091B5056091B4058091B305F7
:103A40000E94F2182496E2E00C947A3381E0C6CF0B
:103A500084E2C4CF0E94C41CE9CF8091B205869550
:103A60008F5F853208F081E061E00E94DF1C0895DD
:103A70009091B20596958FEF890F913009F484E209
:103A800061E00E94DF1C08959091B20590FF08C08C
:103A90009695981728F0961718F40E942D1D0895F2
:103AA00061E00E94DF1C0895A7E0B0E0EAE5FDE1D7
:103AB0000C9458337C01DC019C9111968C911197E8
:103AC00013962D913C91232BB1F189238F3F99F1CE
:103AD00061E0C7010E94520C8C01F70122813091F4
:103AE0007C012223F9F09A9581159F4440F5C80185
:103AF0009927AC01445051094432510518F08B9775
:103B00000E9780F4E0918505F0E0EE0FFF1FED5A6F
:103B1000FA4F808191818F3F4FE7940719F001960A
:103B2000918380833323C1F0D70112968C910E9438
:103B3000860F81114EC02796E8E00C9474330F3F36
:103B4000110541F038F03111EFCF0F3EBFEF1B07E9
:103B500058F307C0C801CDCFC80101978E3F91052A
:103B6000A0F789E680938605109388050093870562
:103B70002093890520E030E086E895E0FC0101967D
:103B80004081240F311DE5E08A389E07B9F7209364
:103B90008A05E6E8F5E098EB2191809138078F5F80
:103BA00030913707831303C00FB607FE0DC0309165
:103BB00037078317E1F3A82FB0E0A95CB94F2C9326
:103BC000809338079093C90025E0EB38F20721F77E
:103BD000ABCFD70112968C910115BEE71B07D9F028
:103BE0000130EEE71E0709F472C00115FCE71F075C
:103BF00009F089C0882309F49ECF0E9434108823DD
:103C000009F499CF81E00E945A090E9416130E947C
:103C1000331C0E94B713882309F4DFC182E70E9496
:103C2000981482E70E9402158091B20580FF64C05B
:103C30009091AC05992381F160E086950E94DF1C8C
:103C40008091AC0591E089278093AC05D70112964D
:103C50008C918111F5C1D70112968C91882309F4BA
:103C6000BCC10130BCE71B0709F4B5C10330ECE768
:103C70001E0709F4AAC10115FCE71F0709F0E0C1FE
:103C80000E9452152FEF34E34CE021503040404069
:103C9000E1F700C00000BDCF0E944A0D9E012F5FDA
:103CA0003F4F4091B5056FEF8FEF0E94B00C8B81B5
:103CB00099812A81EBE8F5E0248393838583339609
:103CC00035E0E739F307C1F70E947510B9CF8823B3
:103CD000B1F08091AB05811106C081E08093AB0506
:103CE00082EE0E9498140E94B81C9093AA058093BB
:103CF000A9058BE20E949814F7018281AACF8BE27A
:103D00000E940215A3CF81110EC08091B705827267
:103D1000F801E052F847E531F10508F09CCFE55590
:103D2000FB4C0C94F433C8019057839708F045C1BD
:103D300084E090E00E9465349093AE058093AD05D9
:103D4000F801E150F047E232F10520F4E054FB4C79
:103D50000C94F4338091AD0581608093AD05609142
:103D6000AD057091AE0584E090E00E9489340E9418
:103D70005215E1CE8091AE0588608093AE05EFCFFD
:103D80008091AD058260E9CF8091AD058460E5CF7B
:103D90008091AD058860E1CF8091AE058160EDCF67
:103DA0008091AE058260E9CF8091AD058061D5CF6D
:103DB0008091AD058062D1CF8091AD058064CDCF7B
:103DC0000E9452158091AD058068C7CF8091AD05E6
:103DD0008C60C3CF8091AE058360CFCF8091AD055D
:103DE0008E7FBBCF8091AE05877FC7CF8091AD0519
:103DF0008D7FB3CF8091AD058B7FAFCF8091AD0527
:103E0000877FABCF8091AE058E7FB7CF8091AE0517
:103E10008D7FB3CF8091AD058F7E9FCF8091AD0513
:103E20008F7D9BCF8091AD058F7B97CF0E945215E0
:103E30008091AD058F7791CF8091AD05837F8DCF38
:103E40008091AE058C7F99CF8091AD0582FB99273B
:103E500090F921E0922790FB82F990FB83F97DCFC6
:103E60008091AE05982F909591708E7F892B90FB55
:103E700081F983CF9091AD05892F8F7B96FF806468
:103E80006CCF0E9452159091AD05892F97FB87F951
:103E9000805863CF61E08EE090E00E946B345FCF8A
:103EA00060E0F9CF9091AD05892F8F7E94FF8061FE
:103EB00054CF9091AD05892F8E7F90FF81604DCFBB
:103EC0009091AE05892F877F93FF886056CF8091B0
:103ED000B20580FF19C08E7F8093B2052091B20594
:103EE0003091B3054091B4055091B505CA01B901AF
:103EF0000E948E180E944A0D8091B10581608093C6
:103F0000B1050E94751017CE81608093B20561E003
:103F100086950E94DF1C0FCE48E35DE16DE27DE1F6
:103F20000E94510D08CE4DE25DE168E37DE1F8CFDE
:103F30004DE859E163E879E1F3CF43E859E16DE8F1
:103F400079E1EECF44EA59E167E979E1E9CF47E960
:103F500059E164EA79E1E4CF4EEB59E161EB79E1B3
:103F6000DFCF41EB59E16EEB79E1DACF45ED58E176
:103F700068EB78E1D5CF48EB58E165ED78E1D0CF3B
:103F800061E081E0C6CF65E082E00E94441DD3CDB0
:103F900068E086E0FACF6EE089E0F7CF64E18FE079
:103FA000F4CF67E185E1F1CF61E088E1B2CF62E271
:103FB00089E1EBCF61E083E2ACCF01303CE713074E
:103FC00051F003304CE71407D9F56FEF7FEF80E035
:103FD00090E00E9489340E946815D701CD90DC9052
:103FE000C6010E94FC09182FB601812F0E941F0AEA
:103FF0000E94AC0A182FD70112962C911297159691
:104000003C9132953F70492F42954F70483009F4EA
:10401000ADC050F5443000F5892F8F704230A0F1CB
:10402000907F903211F08295807F113009F06CC042
:10403000222309F463C0363090F40E943D150FC06E
:10404000F701C080D180C6010E941E0C182F682F76
:10405000C6010E94E209C8CF443009F46CC060E098
:10406000C7010E94520C67CD493009F413C14A5F61
:104070004F704230A0F7823F09F01DC1892F8F7128
:10408000222309F444C114C1082F903110F0029585
:10409000007F2223C9F0002369F080E2810F88307D
:1040A00010F011110BC08091B705802B8093B705DC
:1040B0000E947114812F0E949814D1CF8091BC0569
:1040C000802B8093BC05F4CF812F0E940215002322
:1040D00031F2009580E2810F883010F0111108C094
:1040E0008091B70580238093B7050E947114B7CFE4
:1040F0008091BC0580238093BC05F7CF353008F054
:10410000AECF0E944715ABCF222321F0332309F411
:1041100094CFD0CF3323A9F3193349F4BFEFE7EE9F
:10412000F3E0B150E040F040E1F700C00000812F23
:104130000E94021594CF892F8695869583708823D7
:1041400061F0813009F08BCF812F9370211102C073
:1041500080E090E00E940C0E82CF812F937021119D
:1041600002C080E090E00E94E60D79CF892F837035
:10417000811147C0211130C0812F829586958770AB
:10418000880F880F212F2F7030E0082E02C0220FD9
:10419000331F0A94E2F740E050E014FF09C04FE0FB
:1041A00050E002C0440F551F8A95E2F740955095A4
:1041B0009695969593709230D1F09330A1F06091DE
:1041C000B8057091B905913061F0C901842B952B28
:1041D000862397230E9461090E9464100E94571051
:1041E0003ECF262B372BC901842B952BF3CFC9014A
:1041F000842B952B2091B8053091B9058227932700
:10420000E9CF222399F190FFE7CF812F8295869500
:104210008770880F880F212F2F7030E0082E02C082
:10422000220F331F0A94E2F740E050E014FF09C068
:104230004FE050E002C0440F551F8A95E2F74095C9
:1042400050959695969593709230D1F09330A1F059
:104250006091BA057091BB05913061F0C901842B62
:10426000952B862397230E946609B6CF823008F4E7
:10427000B3CFCBCF262B372BC901842B952BF3CF74
:10428000C901842B952B2091BA053091BB0582275B
:104290009327E9CF092F0F70222339F0802F0E9436
:1042A0006B09812F0E943D1597CF0E944715802FE3
:1042B0000E947B0991CF833F60F4803F99F0813F5A
:1042C00011F12223D1F13323A9F1812F0E949814F7
:1042D00083CF833FF9F02111F6CF31113BC0892FF5
:1042E0008F71E6CF222369F0353008F075CF292F82
:1042F0002F7181E090E002C0880F991F2A95E2F7A4
:10430000C2CF3530F2CF892F8F71222389F20E94DC
:104310006B0962CF222359F09F7121E030E0A9019F
:1043200002C0440F551F9A95E2F7CA019CCF80E066
:1043300090E099CF892F8F71EACF332381F28933AF
:1043400049F45FEF87EE93E0515080409040E1F7F1
:1043500000C00000812F0E9402153ECF1F93CF9313
:10436000DF938091F405803108F04CC08091F10515
:10437000882309F447C08091BE052091BD05609156
:10438000EF053091F005C091F205D091F305732F40
:1043900076232817B9F190E0209709F443C016E07E
:1043A0007F3F09F43FC0189FF001199FF00D1124C1
:1043B000DF01A154BA4F11964C91119734132CC0C0
:1043C0004C91461329C012964C91129741111EC070
:1043D00013964D915C914C1B5D0B483C5105E0F4EC
:1043E0008091F4058F7080618093F405EC53FA4F4F
:1043F00080818F70806180838FEE95E00E94541DD4
:104400000E94150ADF91CF911F9108950196877040
:1044100099272813C8CFF6CF0196877099272813BC
:10442000BFCFF0CF01968770B4CF8F929F92AF929B
:10443000BF92DF92EF92FF920F931F93CF93DF9380
:10444000CDB7DEB72B970FB6F894DEBF0FBECDBF4A
:104450008C0185E0F801DE01179601900D928A9596
:10446000E1F7F801F280A380B4808FEE882E85E01A
:10447000982E9091EF052091F0054091F205509112
:10448000F3054115510509F403C1822F89238F3F9C
:1044900009F4FEC0D090F105B501641B750BDD2059
:1044A00009F4DBC08091F405683C710508F0B7C0E1
:1044B0003181803108F077C0EF2C321312C0208197
:1044C00029130FC0F1101CC08F7080618093F40518
:1044D000C4010E94541D8091F405F8018583E12CEC
:1044E0004FC08F819885AB2889F0282F29232F3F33
:1044F00069F0E091BE052091BD0536E0FF20E1F0B6
:104500008091F40581608093F405E9CFFF2039F3B1
:10451000F7CF4E2F50E03E9FF0011124E154FA4FA7
:104520006181691306C06081681303C062816111F3
:10453000D6CFFA013196E770E213EBCF8F819885E1
:104540000E94720C292F22952F70903248F49F7090
:10455000992311F08823A1F0805E883088F004C090
:10456000225F2F70223028F0C8010E94541DED2CCC
:1045700007C09F70992381F3F8019581903160F70E
:104580008E2D2B960FB6F894DEBF0FBECDBFDF91F8
:10459000CF911F910F91FF90EF90DF90BF90AF9060
:1045A0009F908F900895321312C0208129130FC05D
:1045B000F1100DC08583C8010E94541D86E0F801EA
:1045C000AFEEB5E001900D928A95E1F725C0C801E4
:1045D0000E94810C882309F457C0FF2009F454C0BD
:1045E0008091F405803270F02091EF053091F00554
:1045F0003A8329831B82BD82AC828E83CE010196D1
:104600000E94541D86E0F801AFEEB5E001900D92D6
:104610008A95E1F70E94AE21EE24E394B1CF803178
:1046200050F48FEE95E00E94541D86E0F401119243
:104630008A95E9F754CF31812313C9CF20812913FB
:10464000C6CFF110C4CF8583C8010E94541D86E0F7
:10465000F40111928A95E9F7DFCF683C710528F7DC
:10466000FF2091F08181281305C08081891302C049
:1046700086E0A6CFC8010E94810C8111C3CF809132
:10468000F40581608093F405C8010E94541DC4CFD5
:10469000FF20D1F3C8010E94810C8823A9F386E092
:1046A000F801AFEEB5E001900D928A95E1F78091A7
:1046B000EF059091F0050E94720CACCFA7E1B0E03D
:1046C000E4E6F3E20C945D334B8B5C8B962F6D8BA1
:1046D0007E8B8F8B61111092BC051A8A85E0FE01DA
:1046E0007396DE011D9601900D928A95E1F79F87E2
:1046F00086E0FE013D96DE01179601900D928A95A7
:10470000E1F7CE0107960E941522811131C086E0A3
:10471000FE013796DE01119601900D928A95E1F720
:104720008F8198852091BD054091BE056A857B8566
:10473000672BF1F089238F3FD9F030E0C901019652
:104740008770992750E084179507E9F096E0929FCB
:10475000D001939FB00D1124A154BA4FFE013196A0
:1047600001900D929A95E1F78093BD050E94150A7C
:1047700016E08091BE059091BD05891312C0679621
:10478000E3E00C9479330E9452151092BD0510920B
:10479000BE0586E0EFEEF5E0DF011D928A95E9F7B0
:1047A000E7CF189FC001112481549A4F0E9415220F
:1047B000882329F38091BE0590E0019687709927A0
:1047C0008093BE05D6CF10924A0280914902882379
:1047D00049F08091B20581608093B20560E08695D2
:1047E0000E94DF1C0E94C41C0895AAE0B0E0EBEF19
:1047F000F3E20C945C33182F8E830DEF611101C02E
:104800000CEF0F8381E088870E94B81C8160782FAD
:104810004E815F816885892F0E945E2319830A83F8
:104820001B820E94B81C8160782F49815A816B815C
:10483000892F0E945E232A96E4E00C947833A1E04D
:10484000B0E0E5E2F4E20C945733EE24E394F12C6B
:1048500001E015E09E012F5F3F4F4FED54E063E014
:1048600082E00E94CB19082F882339F1D12C80E0F7
:104870001DC0C090DE04CD0C2C2D30E0A9014452A7
:104880005B4F7A01E1E0F0E0EC0FFD1FED0DF11D53
:104890001081FA019081191BB12E1B149CF0912FED
:1048A00017FD90E0191B111118C0D3949091DB04EF
:1048B000D916F8F281110E944F0E802F2196E9E05F
:1048C0000C947333BA94F70180818F5F808360E02A
:1048D0008C2D0E94F523802FE0CF1F5FF701808190
:1048E0008150808361E08C2D0E94F523802FDBCFE7
:1048F0009C014FB7F89480911A0290911B02A091ED
:104900001C02B0911D024FBF821B930B0895ACE0B7
:10491000B0E0EDE8F4E20C9459330E9434109E01AB
:104920002F5F3F4F7901E0914402882309F401C1D0
:104930008CE0D9011D928A95E9F70E2F10E0000F47
:10494000111F025B1D4F8091FF018A3008F04FC09C
:1049500047E55AE1B701C8010E943714882309F4DA
:1049600069C04FE154E2B701C8010E94371488239F
:1049700009F460C04FEC5AE1B701C8010E94371436
:10498000882309F457C04BEF5AE1B701C8010E94D0
:104990003714882309F44EC01092FF01809143021E
:1049A00090E0880F991F4CE050E0B701825B9D4F6B
:1049B0000E94413421E02093FB01892B69F580910D
:1049C0007C01882309F494C08091F8016091360637
:1049D00090913506262F30E0492F50E0691708F4F2
:1049E000A5C042175307C4F18093F80181C080919C
:1049F000F9019091FA010E947824843F914008F0D7
:104A0000A7CF8091FB018823D1F28CE0F7011192AE
:104A10008A95E9F71092FB01A0914302B0E0AA0F3A
:104A2000BB1FA25BBD4F8CE0F70101900D928A95F0
:104A3000E1F7C5CF8091FF018F3F39F40E94B81C88
:104A40009093FA018093F901DCCF8F5F8093FF018F
:104A50008A3008F4A3CFF2CFE82FF0E02091360699
:104A6000909135062917D1F3909135069F5F9034C8
:104A700008F090E0A92FB0E0AB50BA4F2C91909382
:104A80003506EA57FA4F2083811107C090918605B9
:104A9000993609F09BCF8F5F99CF8430E1F78093EF
:104AA000F80120E030E086E895E0FC0101964081C5
:104AB000240F311DF5E08A389F07B9F780918605EC
:104AC0008936A1F480918A05821310C080918705F0
:104AD00090918805209189058F3E3FEF9307F0F074
:104AE00081E0211101C080E00E94860F1092F80140
:104AF0008091AB05882371F08091A9059091AA055A
:104B00000E947824893E934028F082EE0E9402158C
:104B10001092AB052C96E7E00C947533222319F024
:104B20000E949814E3CF0E940215E0CF205C3F4F13
:104B300058CFF0E0EE0FFF1FE25BFD4F8CE0A4EFDB
:104B4000B4E001900D928A95E1F76CE070E084EF9B
:104B500094E00E94580D8093F3044091950250E038
:104B60006091940270E064527B4FC7010E944E3402
:104B700089818093010561E070E0C7010E94580DB2
:104B80008093000588E0E2E0F5E0D70101900D9206
:104B90008A95E1F7809102058695F0900305E090F3
:104BA0000405D090050500910805109109051092A3
:104BB0000905112301F110FF0BC0998190FF22C05C
:104BC0009091B20591609093B20560E00E94DF1C65
:104BD00011FF06C020E04D2D6E2D8F2D0E94F21882
:104BE00012FF04C0002389F00E94C41C13FF03C0FD
:104BF00081E080938F0280910A05882349F00E940A
:104C0000461C88CF0E941613E3CF0E944A0DEECFB8
:104C10000E94331C7FCF2F923F925F926F927F92C0
:104C20008F929F92AF92BF92CF92DF92EF92FF92BC
:104C30000F931F93CF93DF93CDB7DEB768970FB66F
:104C4000F894DEBF0FBECDBF88E1EBE2F2E09E013B
:104C50002F5F3F4FD90101900D928A95E1F780E0D7
:104C600090E0722E632E61E070E0812C912C540153
:104C70008394A0912701B091280140E050E09B016E
:104C8000042E02C0220F331F0A94E2F7282339238F
:104C9000042E02C0359527950A94E2F72111A1C090
:104CA0002C91E22FE295EF70EE5DF0E010812F7015
:104CB0007B0102C0EE0CFF1C2A95E2F79701212B25
:104CC00020834F5F5F4F119643305105C1F62AE1B3
:104CD0002A95F1F700C095018401082E04C0000F49
:104CE000111F221F331F0A94D2F77801A8014095A3
:104CF0005095E0913501F09136012BE2222E22E011
:104D0000322E6F01A6E0CA0ED11C5190252D22959E
:104D10002F70205E30E0D9010C91D1012D913D9191
:104D20001D0110E0B52DBF7002C015950795BA950D
:104D3000E2F700FD68C02E293F29810102501109C8
:104D4000D8012D933C93CE16DF06F9F601968830F4
:104D5000910509F08ECF8091370181110BC08091B0
:104D60002F02909130021E9951C0916090933002B1
:104D700080932F0248E150E06BE272E0872D962D80
:104D80000E94413400914402892B09F441C081E022
:104D90008093FE010E94B81C9093FD018093FC015A
:104DA0008091FC019091FD010E9478240A97A0F166
:104DB00010E0000F111F025B1D4F4CE050E06BE252
:104DC00072E0C8010E944134892B41F08CE0EBE293
:104DD000F2E0D80101900D928A95E1F71092FE0160
:104DE0001BC02C91E22FE295EF70EE5DF0E0108198
:104DF0002F707B0102C0EE0CFF1C2A95E2F7970191
:104E0000209521235DCF2423352397CF9E7FAECFDE
:104E10008091FE018111C4CF0E94872468960FB64D
:104E2000F894DEBF0FBECDBFDF91CF911F910F91E0
:104E3000FF90EF90DF90CF90BF90AF909F908F90BA
:104E40007F906F905F903F902F900895CDB7DEB721
:104E50002D970FB6F894DEBF0FBECDBF85B7806823
:104E600085BF85B7806885BF84B7877F84BF0FB64D
:104E7000F894A895809160008861809360001092FA
:104E800060000FBE80E890E00FB6F8948093610058
:104E9000909361000FBE8DEA9CE09093EF018093A8
:104EA000EE010E941F0F0E94D90F8091E2008460E2
:104EB0008093E200789480910B05882399F080918B
:104EC000E9001091EC001795112717958F70182B9A
:104ED0001092E9008091E80083FD0E947E151F700A
:104EE0001093E90082E084BD93E095BD9AEF97BDF1
:104EF00080936E0026982E988FE891E00197F1F745
:104F000000C0000083B186FB882780F991E08927E3
:104F1000809337018091370181115AC285E08093D7
:104F20001F0185E0809320010E94341081110E94AE
:104F3000D7318091370191E0892780939402A92F7E
:104F4000A81BA093DE048091370190939502809175
:104F500037019093DB0480913701811106C084E30F
:104F60008093420185E38093410180914201E82FC3
:104F7000E295EF70F0E041A18F7021E030E079011F
:104F800002C0EE0CFF1C8A95E2F7C7019E2D90959A
:104F9000942391A392A1892B82A380914101E82FB0
:104FA000E295EF70F0E041A18F70890102C0000F1F
:104FB000111F8A95E2F7C801902F9095942391A331
:104FC00092A1892B82A38FE891E00197F1F700C0AD
:104FD00000001091950262E471E041E451E0E6E9DD
:104FE000EE2EE2E0FE2EFB018E2F861B811708F4C9
:104FF000F1C18091370190E0811101C096E090935A
:10500000440286E0891B809343028091370181111D
:105010000CC089E291E0909336018093350184E2DF
:1050200091E09093280180932701A0912701B091EE
:1050300028019D012D5F3F4FAD0161E070E0FA0155
:105040008191AF01E82FE295EF70EF5DF0E0108104
:105050008F707B0102C0EE0CFF1C8A95E2F7C7013E
:10506000812B80832417350751F761E070E08D9123
:10507000E82FE295EF70EE5DF0E040818F708B01DC
:1050800002C0000F111F8A95E2F7C80180958423A2
:1050900080832A173B0759F7A0913501B09136015B
:1050A000AD014A5F5F4F21E030E08D91E82FE2953E
:1050B000EF70EF5DF0E060818F70790102C0EE0C5F
:1050C000FF1C8A95E2F7C701809586238083FD0146
:1050D00031978081E82FE295EF70EE5DF0E060811E
:1050E0008F70890102C0000F111F8A95E2F7C80175
:1050F000862B80834A175B07C1F6809137018111A7
:1051000002C026982E9A88E1EBE2F2E0DF01E82E59
:105110001D92EA94E9F7EEE4F2E0DF011D928A9530
:10512000E9F780E00E945A09F89489E18093CC0065
:1051300082E08093C80088E98093C90086E080936C
:10514000CA00109237071092380710923506109255
:10515000360678948091D80080618093D800B5E3BA
:10516000BA95F1F700008091D900817080937C019D
:1051700080E090E00E946534873E9E4F11F00E94CF
:105180002F1882E090E00E9457348093660284E0FA
:1051900090E00E9465349093AE058093AD0583E066
:1051A00090E00E94573490E00E94610983B186FB31
:1051B000882780F9880F8093C60480E8809347028F
:1051C0000E9480306DE070E087EF98E00E940A1C3A
:1051D000892B09F043C08091C60463E070E081FD33
:1051E00021C184EF98E00E940A1C892BB9F56DE07B
:1051F00070E084EE98E00E940A1C892B79F50E94E9
:10520000320E6E837F8388879987DC01CB01805DB6
:105210009A48AF4FBF4F8093CA049093CB04A0939A
:10522000CC04B093CD04E6ECF2E080E092E0DF0144
:105230008C011D9201501040E1F7F0934602E0937B
:1052400045028FEF9FEF9093C9048093C80481E0DB
:105250008093D0048093D2041092C70480914802B6
:1052600081113BC080E090E00E946534873E9E4FF4
:1052700021F00E942F180E94A31888E090E00E945D
:105280005F346093B2057093B3058093B405909337
:10529000B5058091B10583608093B105623070F4EB
:1052A0000E94A31888E090E00E945F346093B205EA
:1052B0007093B3058093B4059093B5050E943C0D9F
:1052C0000E944A0D8091B20580FF04C060E086957F
:1052D0000E94DF1C81E0809348020E9434108111FB
:1052E00002C00E94DA3188E391E090930E0580932A
:1052F0000D056624639480910B05853079F48091C7
:105300000B05853009F491C00E9452150E9464106B
:105310000E9457100E94E3230E94E3230E940B2661
:1053200027E6A22E22E0B22E3EE4832E32E0932E18
:10533000D401F501219131918D919D916FE772E03A
:105340006E177F0709F4BCC02817390799F3712C31
:10535000D4010D911D914D01F501C190D1905F01D6
:10536000C016D10659F1C026D126512CEE24E39463
:10537000F12CC6018E219F21892BB1F059827A82AE
:1053800021E0C8018E219F21892B09F420E02B8385
:105390000E94B81C8160782F9D838C8349815A813B
:1053A0006B81892F0E945E235394EE0CFF1CF9E061
:1053B0005F12DFCFF50132971183008373941CE0F5
:1053C000E12E7E10C5CF0E94320E772473949BC0CD
:1053D00080E0A5CD0191802F82958F70805E90E056
:1053E000DC012C91DA013D91AD01832F82958F7004
:1053F000805E90E0DC018C9190E03F7002C095955A
:1054000087953A95E2F78170880F30E00F7002C0FF
:10541000359527950A95E2F72170822BD7018D9358
:105420007D01E2CD81EF98E0DECE80910B058430E6
:1054300099F00E944A0D80914A02811109C0609240
:105440004A028091B2058170809349020E9416132E
:105450000E94331C0E94872480914B02882309F408
:105460004ECF0E940B26EEE4F2E086E692E0219118
:105470003191232B21F48E179F07C9F740CF80E18C
:1054800089BD82E189BD09B400FEFDCF8091D800BD
:105490008F7D8093D8008091E00082608093E0004F
:1054A0008091E00081FDFCCF0E9452152FEF34E384
:1054B0004CE0215030404040E1F700C000001FCFD9
:1054C0002817390709F043CF0E94B81C8C0180913E
:1054D0004C0290914D0208171907A1F08FEF8983B4
:1054E0008A831B820E94B81C8160782F9D838C83E5
:1054F00049815A816B81892F0E945E2310934D024E
:1055000000934C02712C0E943410882309F4C7C008
:10551000C0905305D09054050D2C000CEE08FF08E8
:1055200010914001A12EB12CE3E5F5E081E090E07F
:105530003296A816B9060CF01FC120918502309151
:1055400086024091870250918802CA01B9010E94E7
:10555000520E1B012C019601A701F7FE04C020E0AA
:1055600030E040E050E0A0E6BAEE0E9418346E83CE
:105570007F838887998788EC8A9D90018B9D300D69
:105580001124032E000C440B550B220D331D441D1A
:10559000551DA5E0B0E00E9418346A877B878C8790
:1055A0009D876E817F81888599852A853B854C857D
:1055B0005D850E94B33349015A0131EF831691048E
:1055C000A104B10428F0B0EF8B2E912CA12CB12CAA
:1055D00049EC24163104410451040CF180918505F5
:1055E00090E0019669E170E00E949F338093850509
:1055F000880F991FFC01ED5AFA4F11821082183161
:1056000008F017E11F5F109340010E94320E609373
:10561000850270938602809387029093880252E0FD
:10562000C516D104E104F1040CF4812C60918102CF
:105630007091820280918302909184020E94520EA6
:105640006B017C0175E6C716D104E104F10484F016
:105650000E94320E609381027093820280938302D3
:10566000909384028091A3028093800280927F02B3
:1056700010918002A0917F02A11BBB0BA701960194
:105680000E9423346E837F838887998724E630E0E5
:1056900040E050E00E94D533120F1093A302809196
:1056A000B005882309F465C08091AF05E091B2058B
:1056B000E695E81BE0938E02823009F069C0F0E0C5
:1056C000EE5EF64FE4910E2F10E0F3E9EF2EF3E1DA
:1056D000FF2E80918F02882361F010928F020E942A
:1056E000B81C90938D0280938C02109291021092BC
:1056F00090020E94B81C9C0180918C0290918D02B6
:10570000A901481B590B4F3F5F4798F540918B0209
:105710004423B1F010928B024091890250918A0289
:10572000241B350B2F3F3F4758F4405D5A48509398
:105730008A02409389022091B10528602093B10527
:10574000C0909002D0909102800F911F90938D0293
:1057500080938C028CE892E0F70109958091900289
:1057600090919102892B29F4CD2819F0F1E0F09362
:105770008B02D12CF12CE1C040815181052E000C0F
:10578000660B770BC40ED51EE61EF71E0196D0CE13
:10579000853109F447C068F4893061F18F30B1F187
:1057A0008630E9F000ED17E0EFEAEE2EECE0FE2E99
:1057B00090CF833209F441C004EF11E022E0E22EE1
:1057C00021E1F22E843209F484CF08E210E092E85D
:1057D000E92E92E1F92E883109F47BCFE3CFF0E096
:1057E000E15FF64FE4910E2F10E077EAE72E73E1C8
:1057F000F72E6FCFE695F0E0E45FF64FE4910E2FC1
:1058000010E060E4E62E61E1F62E63CFE695F0E06D
:10581000E75FF64FE4910E2F10E05BE7E52E51E1D4
:10582000F52E57CFF0E0EA5FF64FE4910E2F10E02F
:1058300042E0E42E42E1F42E4CCFE4E0F9E00591A1
:10584000149131E4E32E33E1F32E43CF0D2D10E01C
:10585000F801EE5BFE4F4081E42FE295EF70E05ED1
:10586000F0E02081F801EF5BFE4F3081E32FE295FD
:10587000EF70E05EF0E0808190E03F7002C09595AF
:1058800087953A95E2F78170880F30E04F7002C03B
:10589000359527954A95E2F72170822BD801AA56B3
:1058A000BD4FEC919E2F9370891709F445C0EE0F00
:1058B000EE0FE82BEC93E0909402ED0CEF70F0E02B
:1058C000EE55FE4F0E561D4F8081D8019C91890FD9
:1058D0008C9320E0843084F0EE2DF0E0E452FB4F16
:1058E00080818F5F80830E943410882321F060E0E4
:1058F0008E2D0E94F52321E0F80180818D3F84F4F4
:10590000EE2DF0E0E452FB4F8081815080830E94B5
:105910003410882321F061E08E2D0E94F52321E0D0
:10592000D8018C91082E000C990B64E070E00E9465
:105930009F33F8018083F22AD39480919502D81680
:1059400008F484CF1091D004FF20B1F00E944F0ED4
:10595000111117C00E94461C0E946410182F8091DC
:10596000D104181709F4C7CC1093D1040E94320E49
:10597000812F0E945710BFCC111103C0772051F71F
:10598000EBCF8091CE049091CF040E9478248A3F7F
:10599000910508F4C8C00E94B81C9093CF0480936E
:1059A000CE0460E080E00E94710D8091B20580FF1E
:1059B00024C00091B505F0E80F9F80011124012F4C
:1059C000110F110B80914401282F30E002171307AB
:1059D000A1F0198291E89A830B83801771F024E675
:1059E00030E043E050E0BE016F5F7F4F88E70E94E8
:1059F0002531892B11F4009344010E94341088232F
:105A000009F4D5C060E080E00E94710D60E087E796
:105A100090E10E94DF1B60E080E790E10E94DF1BC5
:105A20008091BA059091BB05292F332721153105A7
:105A300009F4BBC0C90128E0AC01B4E05695479514
:105A4000BA95E1F7452B81F4AC01569547955695EB
:105A50004795452B49F496958795892B29F060E069
:105A60008BE690E1222319F060E086E690E10E9447
:105A7000DF1B61E080E00E94710D0E946410182F0E
:105A80008091A502181759F11093A50260E085E6F0
:105A900090E10E94DF1B81E00E94AC1B11FF09C056
:105AA00061E080E00E94710D60E080E690E10E947C
:105AB000DF1B10FF09C061E085E00E94710D61E00D
:105AC0008CE590E10E94DF1B12FF09C061E089E0D4
:105AD0000E94710D60E088E590E10E94DF1B62E0AA
